:1000000012C024C023C022C021C020C01FC01EC0F7
:100010001DC01CC01BC01AC019C018C017C016C014
:1000200015C014C013C011241FBECFE5D4E0DEBF3D
:10003000CDBF10E0A0E6B0E0E2EEF9E002C005902E
:100040000D92A436B107D9F7C5D1C9C4D9CF672B52
:1000500009F073C08A30910511F4C09808958B306F
:10006000910511F4C19808958C30910511F4C2984E
:1000700008958D30910511F4C39808958E3091053F
:1000800011F4C49808958F30910511F4C59808951E
:100090008031910511F4C69808958131910511F4CC
:1000A000C79808958431910511F4A8980895853171
:1000B000910511F4A99808958631910511F4AA9833
:1000C00008958731910511F4AB9808958831910511
:1000D00011F4AC9808958931910511F4AD98089503
:1000E0008A31910511F4AE9808958E31910511F47D
:1000F000909808958F31910511F491980895803268
:10010000910511F4929808958132910511F4939814
:1001100008958232910511F49498089583329105DF
:1001200011F4959808958432910511F496980895E4
:10013000859709F073C0979808958A30910511F456
:10014000C09A08958B30910511F4C19A08958C30AE
:10015000910511F4C29A08958D30910511F4C39A56
:1001600008958E30910511F4C49A08958F30910549
:1001700011F4C59A08958031910511F4C69A089535
:100180008131910511F4C79A08958431910511F4D4
:10019000A89A08958531910511F4A99A0895863198
:1001A000910511F4AA9A08958731910511F4AB9A3B
:1001B00008958831910511F4AC9A0895893191051B
:1001C00011F4AD9A08958A31910511F4AE9A08950B
:1001D0008E31910511F4909A08958F31910511F4A3
:1001E000919A08958032910511F4929A089581327E
:1001F000910511F4939A08958232910511F4949A1D
:1002000008958332910511F4959A089584329105E9
:1002100011F4969A0895859709F4979A0895CF93C3
:10022000DF93C82F80FF05C08EE090E061E070E0B2
:1002300004C08EE090E060E070E009DFC1FF05C01F
:100240008DE090E061E070E004C08DE090E060E05F
:1002500070E0FDDEC2FF05C08CE090E061E070E080
:1002600004C08CE090E060E070E0F1DEC3FF05C008
:100270008BE090E061E070E004C08BE090E060E033
:1002800070E0E5DEDF91CF9108950F931F93182F53
:1002900080E190E060E070E0DADE812FC0DF8FE087
:1002A00090E061E070E0D3DE04EF11E0C801019757
:1002B000F1F78FE090E060E070E0C9DEC8010197DF
:1002C000F1F71F910F91089580E0DFDF81E0DDDF1E
:1002D00008951F93813019F4162F105804C08230EE
:1002E00049F4162F1054812F82958F70CEDF812F05
:1002F0008F70CBDF1F91089580E091DF80E197E25E
:100300000197F1F783E0C1DF84EC99E00197F1F701
:1003100083E0BBDF8CE795E10197F1F783E0B5DF80
:1003200082E0B3DF82E0B1DF88E0AFDF80E0ADDF05
:100330008CE0ABDF80E0A9DF86E0A7DF0895FF92C5
:100340000F931F93F82E80E190E061E070E07FDE74
:100350008F2D82958F7063DF8FE090E061E070E019
:1003600076DE04EF11E0C8010197F1F78FE090E02D
:1003700060E070E06CDEC8010197F1F78F2D8F709F
:100380004EDF8FE090E061E070E061DEC801019730
:10039000F1F78FE090E060E070E059DEC80101976E
:1003A000F1F71F910F91FF900895CF93DF93EC0128
:1003B00001C0C5DF89918823E1F7DF91CF910895CE
:1003C00081E063DF8CE061DF089581E05EDF88E03B
:1003D0005CDF0895EF92FF920F931F93DF93CF930B
:1003E000CDB7DEB760970FB6F894DEBF0FBECDBFB6
:1003F0008FEF87BB81BB80DF8D98959A8EB5876024
:100400008EBD8E010F5F1F4F80E6E82E80E0F82E34
:100410008CB59DB500D000D000D0EDB7FEB73196B9
:10042000ADB7BEB712961C930E931197F382E2827A
:10043000958384830ED08DB79EB706960FB6F89439
:100440009EBF0FBE8DBF81E062E043DFC801ADDF1C
:10045000DFCFAEE0B0E0EEE2F2E098C20D891E8997
:1004600086E08C831A8309838FEF9FE79E838D83B9
:100470009E01275E3F4FCE0101966F89788DA901BD
:1004800009D02F813885020F131FF80110822E9694
:10049000E4E098C2ABE0B0E0EFE4F2E069C23C0116
:1004A0002B015A01FC0117821682838181FD03C052
:1004B0006FEF7FEFB9C19AE0892E1E010894211CCD
:1004C000311CF3012381F20123FD859123FF8191EA
:1004D0002F01882309F4A5C1853239F423FD8591C4
:1004E00023FF81912F01853221F490E0B301B6D131
:1004F000E8CF982FFF24EE249924FFE1FF15D0F0D8
:100500009B3269F09C3228F4903259F0933291F486
:100510000EC09D3249F0903369F441E024C052E0AE
:10052000F52A84E0F82A28C098E0F92A25C0E0E1FD
:10053000FE2A22C0F7FC29C0892F80538A3070F42C
:10054000F6FE05C0989C902C1124980E15C0E89CCE
:10055000E02C1124E80EF0E2FF2A0EC09E3229F4AE
:10056000F6FC5FC140E4F42A07C09C3619F450E859
:10057000F52A02C0983649F4F20123FD959123FF34
:1005800091912F01992309F0B8CF892F8554833099
:1005900018F08052833038F444E050E0A40EB51EC9
:1005A0005FE359830FC0933631F0933779F0933579
:1005B00009F052C01FC0F5018081898342E050E0FC
:1005C000A40EB51E610101E010E011C0F501C0806C
:1005D000D180F6FC03C06FEF7FEF02C0692D70E0A1
:1005E00042E050E0A40EB51EC6012DD18C015FE79C
:1005F000F52213C0F501C080D180F6FC03C06FEF77
:100600007FEF02C0692D70E042E050E0A40EB51EFD
:10061000C6010ED18C0150E8F52AF3FE06C018C0C1
:1006200080E290E0B3011AD1EA948E2D90E0081791
:100630001907B0F30DC0F601F7FC8591F7FE819123
:100640006F0190E0B3010AD1E110EA94015010402B
:100650000115110581F7E2C0943611F0993661F564
:10066000F7FE08C0F501208131814281538184E089
:1006700090E00AC0F501808191819C01442737FDFB
:100680004095542F82E090E0A80EB91E9FE6F92213
:1006900057FF09C050954095309521953F4F4F4FDA
:1006A0005F4FE0E8FE2ACA01B901A1012AE030E06B
:1006B00001D1D82ED2183FC0953729F41F2D1F7EA7
:1006C0002AE030E01DC01F2D197F9F3661F0903762
:1006D00020F4983509F0A5C00FC0903739F098374D
:1006E00009F09FC004C028E030E00AC0106114FD8A
:1006F000146020E130E004C014FD166020E132E017
:1007000017FF08C0F501608171818281938144E007
:1007100050E008C0F50180819181BC0180E090E04B
:1007200042E050E0A40EB51EA101C4D0D82ED218CC
:100730008FE7F82EF122F6FE0BC05EEFF522D914FA
:1007400038F4F4FE07C0F2FC05C08FEEF82202C0B8
:100750001D2D01C0192DF4FE0DC0FE01ED0DF11D82
:100760008081803319F499EEF92208C01F5FF2FEF0
:1007700005C003C08F2D867809F01F5F0F2DF3FC95
:1007800013C0F0FE0EC01E1510F09D2C0AC09D2C4B
:100790009E0C911A1E2D05C080E290E0B3015ED040
:1007A0001F5F1E15C8F304C01E1510F4E11A01C026
:1007B000EE2404FF0EC080E390E0B3014FD002FFAF
:1007C0001BC001FD03C088E790E00EC088E590E003
:1007D0000BC0802F867881F001FF02C08BE201C040
:1007E00080E2F7FC8DE290E0B30138D005C080E3F1
:1007F00090E0B30133D09A94D914C8F3DA94F1019C
:10080000ED0DF11D808190E0B30128D0DD20B1F71E
:1008100005C080E290E0B30121D0EA94EE20C9F750
:1008200050CEF30166817781CB012B96E2E1BCC00B
:10083000FC010590615070400110D8F780959095AB
:100840008E0F9F1F0895FC016150704001900110B0
:10085000D8F7809590958E0F9F1F08950F931F9343
:10086000CF93DF938C01EB018B8181FF1BC082FF53
:100870000DC02E813F818C819D812817390764F43A
:10088000E881F9810193F983E88306C0E885F98559
:10089000802F0995892B31F48E819F8101969F834A
:1008A0008E8302C00FEF1FEFC801DF91CF911F9120
:1008B0000F910895FA01AA27283051F1203181F1D2
:1008C000E8946F936E7F6E5F7F4F8F4F9F4FAF4F58
:1008D000B1E03ED0B4E03CD0670F781F891F9A1F6B
:1008E000A11D680F791F8A1F911DA11D6A0F711D1F
:1008F000811D911DA11D20D009F468943F912AE02B
:10090000269F11243019305D3193DEF6CF01089512
:10091000462F4770405D4193B3E00FD0C9F7F6CF43
:10092000462F4F70405D4A3318F0495D31FD40520B
:10093000419302D0A9F7EACFB4E0A69597958795A1
:1009400077956795BA95C9F7009761057105089580
:100950009B01AC010A2E069457954795379527952C
:10096000BA95C9F7620F731F841F951FA01D0895C4
:100970002F923F924F925F926F927F928F929F92AF
:10098000AF92BF92CF92DF92EF92FF920F931F939D
:10099000CF93DF93CDB7DEB7CA1BDB0B0FB6F8944E
:1009A000DEBF0FBECDBF09942A88398848885F848E
:1009B0006E847D848C849B84AA84B984C884DF80FF
:1009C000EE80FD800C811B81AA81B981CE0FD11DE3
:1009D0000FB6F894DEBF0FBECDBFED010895F894B9
:0209E000FFCF47
:0409E2002564000088
:00000001FF
